:020000040800F2
:10000000580E0020E5060008BD040008BF040008E3
:10001000C3040008C7040008CB0400080000000067
:10002000000000000000000000000000CF040008F5
:10003000D104000800000000D3040008FD060008F9
:10004000FF060008FF060008FF060008FF0600087C
:10005000FF060008FF060008FF060008FF0600086C
:10006000FF060008FF060008FF060008FF0600085C
:10007000FF060008FF060008FF060008FF0600084C
:10008000FF060008FF060008FF060008FF0600083C
:10009000FF060008FF060008FF060008FF0600082C
:1000A000FF060008FF060008FF060008FF0600081C
:1000B000FF060008FF060008FF060008FF0600080C
:1000C000FF060008FF060008FF060008FF060008FC
:1000D000FF060008BB2B0008934400089346000865
:1000E000FF060008FF060008FF060008FF060008DC
:1000F000FF060008FF060008FF060008FF060008CC
:10010000FF060008FF060008FF060008FF060008BB
:10011000FF060008FF060008FF060008F93E000879
:10012000FF060008FF060008FF060008FF0600089B
:10013000FF060008FF060008FF060008FF0600088B
:10014000FF060008FF060008FF060008FF0600087B
:10015000FF060008FF060008FF060008FF0600086B
:10016000FF060008FF060008FF060008FF0600085B
:10017000FF060008FF060008FF060008FF0600084B
:10018000FF060008FF06000800F002F800F04CF837
:100190000AA090E8000C82448344AAF10107DA45E2
:1001A00001D100F041F8AFF2090EBAE80F0013F0E8
:1001B000010F18BFFB1A43F001031847E07B000052
:1001C000007C0000103A24BF78C878C1FAD85207E2
:1001D00024BF30C830C144BF04680C6070470000C1
:1001E0000023002400250026103A28BF78C1FBD840
:1001F000520728BF30C148BF0B607047662905F021
:100200007986642904F0F682002070471FB505F056
:100210006CFE04F0A9FD04000020002105F00EFB97
:10022000E0601FBD10B510BD04F0BAFE1146FFF727
:10023000EDFF00F009F804F0D8FE03B4FFF7F2FF79
:1002400003BC02F05BFC00002DED048B88B04FF482
:10025000A06000F067FAA82002F0CEFB4FF4E13076
:1002600002F059FC03F0AEF903F06AFA03F0DCFA8D
:1002700003F037FC03F000FD532140F2E73003F0B8
:1002800011FE4FF4165004F064F803F043FF4FF4EE
:10029000E13004F0ABF96B4804F016FA6A4804F058
:1002A00013FA6A4804F010FA69496A4803F025FC19
:1002B0006749694803F021FCC2E00120082367A2D6
:1002C00000210090084602F0FCFE012000906448E6
:1002D000008800EE900AF8EE600AB0EE600A08238B
:1002E00006220021142002F0CCFF012008235DA289
:1002F00019460090002002F0E4FE012000905848CA
:10030000408800EE900AF8EE600AB0EE600A08231A
:1003100006221946142002F0B4FF0120082352A23D
:1003200010210090002002F0CCFE012000904C48EB
:10033000808800EE900AF8EE600AB0EE600A0823AA
:1003400006221021142002F09CFF0120082347A25E
:1003500019460090002002F0B4FE012000904048B1
:10036000C08800EE900AF8EE600AB0EE600A08233A
:1003700006221946142002F084FF012008233EA221
:1003800010210090002002F09CFE012000903448D3
:10039000008900EE900AF8EE600AB0EE600A0823C9
:1003A00006221021142002F06CFF0120082335A240
:1003B00018210090002002F084FE01200821032370
:1003C000CDE90010314802881821282002F0ABFE48
:1003D000012008232EA218210090462002F071FE71
:1003E00002F0AFFC184890ED020A10EE101A084611
:1003F00005F00AFD41EC180B124890ED020A10EED0
:10040000101A084605F000FD41EC190B214802685E
:10041000214803682148408820490988CDE90632EF
:10042000CDE904108DED028B8DED009B0C484288C8
:1004300001881BA004F09EF903F012FD03F08AFE70
:100440003BE70000A4070020C0070020DC070020D5
:1004500090E8FFFF420000204C000020583A0000C6
:10046000D8050020593A00005A3A00006469616ECC
:100470006C6975313A0000006469616E6C697532AF
:100480003A0000006C656E3A000000008400002015
:100490006D6D0000680000206400002078000020DE
:1004A00025642C25642C25662C25662C25642C259A
:1004B000642C25642C25640D0A000000704700BFE1
:1004C000FEE700BFFEE700BFFEE700BFFEE77047A4
:1004D000704770470CB50020019000907648006886
:1004E00040F480307449086000BF7348006800F42D
:1004F000003000900198401C0190009818B90198B4
:10050000B0F5A04FF1D16C48006800F4003010B194
:100510000120009001E0002000900098012846D1C1
:1005200065484030006840F08050634940310860C1
:100530006248006840F44040604908605E48083006
:1005400000685D49083108600846006840F40040D2
:1005500008600846006840F4A05008605848091F29
:100560000860081F006840F08070091F086000BF25
:100570005148006800F000700028F9D040F2057082
:10058000504908604C480830006820F003004A4990
:10059000083108600846006840F00200086000BFAB
:1005A00045480830006800F00C000828F8D10CBD60
:1005B00010B54548006840F47000434908603E4863
:1005C000006840F001003C49086000203A490831C9
:1005D0000860394800683D490840374908603C4890
:1005E000091D0860081F006820F48020091F0860AA
:1005F000002031490C310860FFF76CFF4FF00060BC
:1006000031498039086010BD70B5002000220223F6
:1006100000240221284D08352D6805F00C0020B17A
:10062000042806D0082834D107E02A4D2A4E356028
:1006300033E02A4D284E35602FE01F4D2D1D2D68CB
:10064000C5F380541C4D2D1D2D6805F03F0154B19C
:10065000224DB5FBF1F5184E361D3668C6F38816E7
:1006600005FB06F209E01B4DB5FBF1F5124E361DF8
:100670003668C6F3881605FB06F20F4D2D1D2D6852
:10068000C5F301456D1C6B00B2FBF3F5124E3560EE
:1006900003E0104D104E356000BF00BF064D083519
:1006A0002D68C5F303150E4E705D0B4D2D68C540CA
:1006B000094E356070BD00000038024000700040F7
:1006C00008544007003C024088ED00E0FFFFF6FEC2
:1006D000103000240024F4000000002000127A00F2
:1006E000040000200948804709480047FEE7FEE76C
:1006F000FEE7FEE7FEE7FEE7FEE7FEE7FEE7FEE7D2
:1007000004480549054A064B70470000B10500083A
:100710008901000858080020580E0020580A0020BF
:10072000580A002032490143324A1160704770B5BF
:10073000002100230F22C4781CB32E4C246804F43B
:10074000E064C4F5E064C4F30721C1F10404E3B23A
:100750000A4144789C40E1B28478144021430C075C
:10076000210E254C05786155047804F01F050124FD
:10077000AC4005786D11AD0005F1E025C5F80041EC
:1007800009E0047804F01F050124AC401B4D0678F5
:10079000761145F8264070BD194A0A400243154BB0
:1007A0001B1F1A60704739B1124A121D12680243AA
:1007B000104B1B1D1A6006E00E4A121D1268824380
:1007C0000C4B1B1D1A607047042808D14FF0E02124
:1007D000096941F004014FF0E022116107E04FF098
:1007E000E021096921F004014FF0E0221161704716
:1007F0000000FA050CED00E000E400E080E100E01C
:1008000080FFFF1F10B50121080200F0D4FF002176
:100810004FF4807000F0CFFF10BD30B502460020CD
:1008200000235068F84C20400D790C6844EA0524F8
:10083000204350609068F54C2040D1E903542C438C
:100840008D682C434D7944EA450420439060D06A7A
:1008500020F470000C7D641EE4B2234340EA035090
:10086000D06230BD00210160017141718160C160C1
:1008700001610121017570470021E54A1168E54ACF
:100880001140D0E900231A4383681A43C3681A430E
:100890001143E14AC2F8041370470021016041602E
:1008A0008160C160704721B1826842F001028260BC
:1008B00003E0826822F00102826070470A4600214C
:1008C0004168D64B194011434160704741628262D2
:1008D00070470A460021416821F01F011143416021
:1008E000704738B1CA49096841F40001CA4AC2F8E0
:1008F000041306E0C649096821F40001C64AC2F89B
:100900000413704738B1C249096841F48001C24AF2
:10091000C2F8041306E0BE49096821F48001BE4A0A
:10092000C2F804137047F0B504460D4600200021BC
:10093000092D11DDE068A5F10A0606EB460707263A
:1009400006FA07F18843A5F10A0606EB460603FA04
:1009500006F10843E0600CE0206905EB4507072637
:1009600006FA07F1884305EB450603FA06F108434A
:100970002061072A0FDA606B561E06EB86071F26DA
:1009800006FA07F18843561E06EB860605FA06F1BD
:100990000843606322E00D2A0FDA206BD61F06EBB6
:1009A00086071F2606FA07F18843D61F06EB860640
:1009B00005FA06F10843206310E0E06AA2F10D0693
:1009C00006EB86071F2606FA07F18843A2F10D06FB
:1009D00006EB860605FA06F10843E062F0BD816881
:1009E00041F0804181607047014600208A6802F032
:1009F00080420AB1012000E00020704721B18268E6
:100A000042F48062826003E0826822F48062826045
:100A1000704721B1826842F00202826003E082687E
:100A200022F002028260704710B50A4600210023BE
:100A3000416821F46041531E41EA4331416010BDD9
:100A400021B1426842F40062426003E0426822F44D
:100A50000062426070470146C86C80B270476C48C3
:100A6000001D0068704721B1826842F48072826084
:100A700003E0826822F480728260704721B182684C
:100A800042F40072826003E0826822F400728260A5
:100A9000704738B15E49096841F400515E4AC2F8B6
:100AA000041306E05A49096821F400515A4AC2F871
:100AB00004137047F0B504461546002000220026B6
:100AC000092911DDE068A1F10A0707EB470C0727A8
:100AD00007FA0CF29043A1F10A0707EB470703FA64
:100AE00007F21043E0600CE0206901EB410C07279E
:100AF00007FA0CF2904301EB410703FA07F21043A7
:100B00002061A06BC0F30156EF1C06F1010CA7EBAE
:100B10000C0707EB870C1F2707FA0CF29043EF1C1A
:100B200006F1010CA7EB0C0707EB870701FA07F2A8
:100B30001043A063F0BD10B50A4600210023816B6D
:100B400021F44011531E41EA0351816310BD08B5E1
:100B5000002300930090009B0B440093009B1A60BD
:100B600008BD0A460021816821F47021114381608B
:100B700070470A460021816821F4401111438160C9
:100B80007047816841F48001816070470146002010
:100B90008A6802F480020AB1012000E00020704758
:100BA00021B1426842F48062426003E0426822F46C
:100BB00080624260704721B1426842F480524260D4
:100BC00003E0426822F480524260704708B5024652
:100BD00000200090009201F12800009B1844009032
:100BE0000098006880B208BD10B50B460021D9B24C
:100BF000012404FA01F11AB144680C43446002E094
:100C000044688C43446010BDFFFEFFFCFDF7FFC04D
:100C100004230140E030FCFF00200140FFFD3FFFC6
:100C20000246002013680B400BB1012000E00020B9
:100C30007047CA430260704770B502460020002327
:100C400000240B12556801268E4005EA060415683B
:100C50001D4015B10CB1012000E0002070BD002244
:100C60000A12D34303607047016821F0010101605B
:100C70000021016041608160C16001612121416109
:100C8000DB49884204D13D21D94A103A91608CE079
:100C9000D7491831884205D14FF47461D44A103ACB
:100CA000916082E0D2493031884205D14FF474110D
:100CB000CF4A103A916078E0CD494831884205D159
:100CC0004FF07461CA4A103A91606EE0C8496031D1
:100CD000884204D1C749C64A103AD16065E0C44988
:100CE0007831884204D1C449C14A103AD1605CE0ED
:100CF000BF499031884204D1C049BD4A103AD16001
:100D000053E0BB49A831884205D14FF03D51B84A64
:100D1000103AD16049E0BA49884204D13D21B84A2D
:100D2000083A116041E0B6491831884205D14FF4C4
:100D30007461B34A083A116037E0B14930318842F2
:100D400005D14FF47411AE4A083A11602DE0AC4958
:100D50004831884205D14FF07461A94A083A1160C0
:100D600023E0A7496031884204D1A249A44A121F56
:100D700011601AE0A2497831884204D19E49A04A04
:100D8000121F116011E09E499031884204D19B49A5
:100D90009B4A121F116008E09949A831884204D18A
:100DA0004FF03D51964A121F1160704710B5002256
:100DB0000268944B1A40CC680B6823434C69234368
:100DC0008C692343CC6923430C6A23434C6A234335
:100DD0008C6A23434C6B23438C6B23431A4302607E
:100DE000426922F00702D1E90B3423431A434261DE
:100DF0000B6943604B6883608B68C36010BD002142
:100E0000016041608160C160016141618161C161D6
:100E1000016241628162C162016341638163704723
:100E200021B1026842F00102026003E0026822F090
:100E300001020260704721B1026842F40042026080
:100E400003E0026822F400420260704721B10268A8
:100E500042F02002026003E0026822F020020260F9
:100E60007047416070470146486880B2704722B1C0
:100E7000036843F40023036003E0036823F40023C2
:100E800003600161704721B1026842F48022026070
:100E900003E0026822F48022026070470AB1016117
:100EA00000E0C1607047014600200A6802F4002299
:100EB0000AB1012000E000207047014600200A68C6
:100EC00002F001020AB1012000E000207047014653
:100ED00000204A6902F03800704730B503460A46E0
:100EE00000200024464DAB4202D24149103901E0B6
:100EF0004349103902F000550DB14C6800E00C6810
:100F0000414D2C4004EA02050DB1012000E0002013
:100F100030BD02463A4B9A4202D23548103801E0C1
:100F20003748103801F000531BB1374B0B40C360FA
:100F300002E0354B0B408360704710B501F0800331
:100F40004BB122B1436943F08003436103E043693D
:100F500023F08003436180290BD02AB1036801F09C
:100F60001E042343036004E0036801F01E04A3434E
:100F7000036010BD70B50246002000240025204EFD
:100F8000B24202D21A4B103B01E01D4B103B1F4EE8
:100F90000E4036B11E2606EAD124166806EA04057C
:100FA00002E0566906F0800501F000560EB15C685B
:100FB00000E01C68144E344004EA010616B10DB17D
:100FC000012000E0002070BD02460D4B9A4202D283
:100FD0000748103801E00A48103801F000531BB1EF
:100FE000094B0B40C36002E0074B0B408360704726
:100FF000106002403D000020400F002000003D2016
:10100000106402403F801CF07D0F7D0F3C0F3C0FB1
:1010100010B504469848844208D10121084600F0E2
:1010200086FB0021012000F082FB76E09348844299
:1010300008D10121022000F07AFB0021022000F0FB
:1010400076FB6AE08E48844208D10121042000F03A
:101050006EFB0021042000F06AFB5EE089488442B8
:1010600008D10121082000F062FB0021082000F0D7
:101070005EFB52E08448844208D10121102000F038
:1010800056FB0021102000F052FB46E07F488442CE
:1010900008D10121202000F04AFB0021202000F08F
:1010A00046FB3AE07A48844208D10121402000F012
:1010B0003EFB0021402000F03AFB2EE075488442C0
:1010C00008D10121802000F032FB0021802000F0B7
:1010D0002EFB22E07048844208D10121801500F0E7
:1010E00026FB0021A01500F022FB16E06B4884428D
:1010F00008D10121401500F01AFB0021601500F015
:1011000016FB0AE06648844207D10121001500F071
:101110000EFB0021201500F00AFB10BDF0B50A46B9
:1011200000210023002400BF3DE0012505FA01F362
:10113000156805EA03049C4234D105684F00032674
:10114000BE40B543056015794E00B540066835438D
:1011500005601579012D02D01579022D16D185680B
:101160004F000326BE40B543856055794E00B5401B
:10117000866835438560456801268E40B5434560E5
:10118000456896798E40B6B235434560C5684F00D4
:101190000326BE40B543C560D5794E00B540C6684C
:1011A0003543C560491C1029BFD3F0BD4FF6FF7110
:1011B00001600021017141718171C171704708B5F1
:1011C0004FF480320092009A0A430092009AC26162
:1011D000C161009AC261C2690092C269009208BDF1
:1011E0000246002013690B400BB1012000E00020F3
:1011F00070470146086980B2704702460020536973
:101200000B400BB1012000E0002070470146486907
:1012100080B2704701837047418370470AB10183F0
:1012200000E0418370474161704742694A40426132
:101230007047F0B5002300244D07ED0E02FA05F3C8
:10124000CE1000F1200555F826504E07F70E0F2658
:10125000BE40B543CF1000F1200646F82750CE100F
:1012600000F1200555F8265045EA0304CE1000F1A0
:10127000200545F82640F0BD000002400004024071
:1012800000080240000C024000100240001402401E
:1012900000180240001C02400020024000240240CE
:1012A00000280240F948006840F00100F749086052
:1012B0000020F64908310860F4480068F449084005
:1012C000F2490860F348091D0860F348EF4984318A
:1012D0000860F0481038091D0860EC48006820F4E8
:1012E0008020EA4908600020E8490C310860E7499D
:1012F0008C31086070470021E44A921C117011463D
:101300000870704710B501460022002300204A11E2
:10131000012A02D1DD4C236808E0022A03D1DB4C0C
:101320007034236802E0D94C7434236801F01F0242
:10133000012494401C400CB1012000E0002010BDAD
:1013400038B5002000900024002500BF3120FFF7B1
:10135000D9FF05460098401C00900098B0F5A04FBA
:1013600001D0002DF2D03120FFF7CCFF08B10124CD
:1013700000E00024204638BD01460020C34A106822
:1013800020F0F80040EAC10010607047C3490860CF
:1013900070470021BD4A703211701170012802D0CF
:1013A00004280AD104E00121B84A7032117005E026
:1013B0000521B64A7032117000E000BF00BF7047CF
:1013C000B7490860704770B5049C41EA8215012650
:1013D000C6EB530645EA0645054345EA0465AB4EB0
:1013E000361D356070BDAD4908667047820142EA1E
:1013F0000172A64B84331A607047A849886670470B
:1014000010B5830143EA016343EA02739F4C8834B9
:10141000236010BDA14908677047A049C8647047A0
:1014200002460020994B0833186820F0EC6042EA2D
:1014300001031843954B083318607047024600209B
:10144000924B0833186820F0784042EA01031843B1
:101450008E4B083318607047014600208B4A0832D3
:10146000106820F003000843106070478748083078
:10147000006800F00C00704701460020834A0832E3
:10148000106820F0F000084310607047014600200B
:101490007E4A0832106820F4E0500843106070471C
:1014A00001460020794A0832106820F4604040EA82
:1014B000C10010607047F0B5002100220024022511
:1014C00000260223714F08373F6807F00C0121B155
:1014D000042905D0082937D105E0724F076036E0AE
:1014E000714F076033E0694F3F1D3F68C7F3805677
:1014F000664F3F1D3F6807F03F036EB16A4FB7FB71
:10150000F3F7DFF888C10CF1040CDCF800C0CCF371
:10151000881C07FB0CF40CE0624FB7FBF3F7DFF815
:101520006CC10CF1040CDCF800C0CCF3881C07FB88
:101530000CF4564F3F1D3F68C7F301477F1C7D00E9
:10154000B4FBF5F7076002E0564F076000BF00BF2D
:101550004E4F08373F6807F0F0010909534F7A5C96
:101560000768D7404760494F08373F6807F4E051A4
:10157000890A4E4F7A5C4768D7408760434F0837E7
:101580003F6807F46041490B484F7A5C4768D74091
:10159000C760F0BD002100F44072B2F5407F0AD16F
:1015A0003A4A0832116821F4F811414A02401143C5
:1015B000364A08321160354A70321268C0F30B03A4
:1015C0001A43324B70331A6070473549443908600A
:1015D00070473349403908607047364908607047A2
:1015E00001460020294A8C32106820F01F004A1E54
:1015F0001043264A8C321060704701460020234A6F
:101600008C32106820F4F8504A1E40EA02201F4A2B
:101610008C3210607047014600201C4A8C321068E2
:1016200020F4401008431060704701460020174A1C
:101630008C32106820F44000084310607047014667
:101640000020124A8C32106820F4403008431060A9
:10165000704719490860704739B10C4A3032126836
:1016600002430A4B30331A6006E0084A30321268EF
:101670008243064B30331A607047F9B1034A343263
:1016800012680243014B34331A601CE000380240F8
:10169000FFFFF6EA1030002400300020000047422F
:1016A000800E47420024F40000127A00140000204B
:1016B000FFFCFF0F5C014742E01147428F4A12686E
:1016C00082438E4B1A60704739B18C4A121D1268E2
:1016D00002438A4B1B1D1A6006E0884A121D1268DD
:1016E0008243864B1B1D1A60704739B1834A0C3206
:1016F00012680243814B0C331A6006E07F4A0C32B9
:10170000126882437D4B0C331A60704739B17B4AB3
:10171000103212680243794B10331A6006E0774AA0
:10172000103212688243754B10331A60704739B11A
:10173000724A243A12680243704B243B1A6006E056
:101740006E4A243A126882436C4B243B1A607047FD
:1017500039B16A4A203A12680243684B203B1A604A
:1017600006E0664A203A12688243644B203B1A60C6
:10177000704739B1614A1C3A126802435F4B1C3B07
:101780001A6006E05D4A1C3A126882435B4B1C3BC0
:101790001A60704739B1594A143A12680243574BDC
:1017A000143B1A6006E0554A143A12688243534BC0
:1017B000143B1A60704739B1504A103A126802431C
:1017C0004E4B103B1A6006E04C4A103A12688243B6
:1017D0004A4B103B1A60704739B1484A1C321268B4
:1017E0000243464B1C331A6006E0444A1C3212681E
:1017F0008243424B1C331A60704739B13F4A203252
:10180000126802433D4B20331A6006E03B4A203207
:1018100012688243394B20331A60704739B1374A16
:10182000243212680243354B24331A6006E0334AEF
:10183000243212688243314B24331A60704739B125
:101840002E4A2C32126802432C4B2C331A6006E0CD
:101850002A4A2C3212688243284B2C331A60704774
:1018600039B1264A303212680243244B30331A60B1
:1018700006E0224A303212688243204B30331A602D
:101880007047012808D11D493C31096841F0080121
:101890001A4A3C32116007E018493C31096821F0CE
:1018A0000801164A3C321160704739B1134A273A91
:1018B00012780243114B273B1A7006E00F4A273A71
:1018C000127882430D4B273B1A7070470B4840300B
:1018D000006840F080700949403108607047014657
:1018E0000020064A283A12680A400AB1012000E0A6
:1018F000002070470149263908707047343802408B
:1019000010B50446FE48844208D101210846FFF77D
:1019100052FF00210120FFF74EFF9DE0B4F1804F00
:1019200008D101210846FFF735FF00210120FFF70C
:1019300031FF91E0F348844208D101210220FFF7F2
:1019400029FF00210220FFF725FF85E0EE488442B1
:1019500008D101210420FFF71DFF00210420FFF71B
:1019600019FF79E0E948844208D101210820FFF7F6
:1019700011FF00210820FFF70DFF6DE0E4488442CD
:1019800008D101211020FFF705FF00211020FFF7EB
:1019900001FF61E0DF48844208D101212020FFF7E8
:1019A000F9FE00212020FFF7F5FE55E0DA488442D9
:1019B00008D101210220FFF7FEFE00210220FFF7DF
:1019C000FAFE49E0D548844209D101210804FFF715
:1019D000F2FE00214FF48030FFF7EDFE3CE0D048EE
:1019E000844209D101214804FFF7E5FE00214FF4AC
:1019F0000030FFF7E0FE2FE0CA48844209D1012100
:101A00008804FFF7D8FE00214FF48020FFF7D3FEB3
:101A100022E0C548844208D101214020FFF7BAFEE8
:101A200000214020FFF7B6FE16E0C048844208D1EE
:101A300001218020FFF7AEFE00218020FFF7AAFEE3
:101A40000AE0BB48844207D101218015FFF7A2FEBE
:101A50000021A015FFF79EFE10BD00220288A84BB2
:101A600098420ED0AC4B98420BD0B0F1804F08D0CA
:101A7000A44B984205D0A44B984202D0A34B984265
:101A800004D14FF68F731A404B881A43A04B9842EB
:101A900007D0A04B984204D04FF6FF431A400B8961
:101AA0001A4302804B68C3620B880385944B9842AB
:101AB00002D0994B984201D18B7A0386012383820D
:101AC00070474FF0FF31416000210180018141806A
:101AD000817270470185828270470A460021018821
:101AE0004FF68F7319401143018070474162704770
:101AF000C16270470146486A70470146088D7047C9
:101B000021B1028842F00202028004E002884FF60E
:101B1000FD731A400280704721B1028842F004022E
:101B2000028004E002884FF6FB731A40028070477F
:101B300021B1028842F08002028004E002884FF660
:101B40007F731A400280704702884FF6F7731A407D
:101B5000028002880A430280704702884FF6FF43E2
:101B60001A40028002880A430280704721B102882D
:101B700042F00102028004E002884FF6FE731A4030
:101B80000280704770B5002400220023058C4FF6B8
:101B9000FE7635400584028C8388048B4FF68F7562
:101BA0002C40B51E2C400D882C43751E2A408D8973
:101BB0002A434D882A43524DA84202D0564DA8428E
:101BC00013D14FF6F7752A40CD892A434FF6FB759E
:101BD0002A408D882A434FF6FF652B404FF6FF556C
:101BE0002B400D8A2B434D8A2B43838004838D68C1
:101BF0004563028470BD70B5002400220023058C6B
:101C00004FF6EF7635400584028C8388048B48F6C6
:101C1000FF752C404FF6FF452C400D884FF6FF76A0
:101C200006EA05252C434FF6DF752A408D8906EA22
:101C300005152A434D8806EA05152A43304DA8426A
:101C400002D0354DA8421DD14FF67F752A40CD896F
:101C50004FF6FF7606EA05152A434FF6BF752A4070
:101C60008D8806EA05152A434FF6FF352B404FF2C3
:101C7000FF752B400D8A06EA85052B434D8A06EA3F
:101C800085052B43838004838D688563028470BD42
:101C900070B5002400220023058C4FF6FF66354006
:101CA0000584028C8388848B4FF68F752C404FF609
:101CB000FC752C400D882C434FF6FF552A408D892A
:101CC0004FF6FF7606EA05252A434D8806EA0525E4
:101CD0002A430B4DA84202D00F4DA84238D14FF2F3
:101CE000FF752A40CD894FF6FF7606EA05252A437F
:101CF0004FF6FF352A408D8806EA05252A4319E06C
:101D0000000001400004004000080040000C0040BA
:101D10000010004000140040000401400040014059
:101D2000004401400048014000180040001C0040F1
:101D3000002000404EF6FF752B404DF6FF752B40FE
:101D40000D8A06EA05152B434D8A06EA05152B4335
:101D5000838084838D68C563028470BD70B5002262
:101D600000230024058C4EF6FF7635400584038C55
:101D70008488828B48F6FF752A404FF6FF452A403B
:101D80000D884FF6FF7606EA05252A434DF6FF75C6
:101D90002B408D8906EA05352B434D8806EA05352B
:101DA0002B43FE4DA84202D0FD4DA84208D14BF670
:101DB000FF752C400D8A4FF6FF7606EA85152C43F9
:101DC000848082838D680564038470BD0021018056
:101DD0004180818081608181C1810182418270471F
:101DE00070B50346002000241846183001258D40A8
:101DF000ACB21D8CA5431D8409B108290AD100EBA2
:101E0000610005684FF68F7635400560056815431B
:101E100005600FE00D1FC5F34E052844056848F620
:101E2000FF763540056005684FF6FF7606EA022624
:101E30003543056070BD4163704781637047C1637E
:101E40007047016470470A460021018B4FF68F737B
:101E500019401143018370470A460021018B48F65F
:101E6000FF7319404FF6FF7303EA022319430183FE
:101E700070470A460021818B4FF68F73194011433A
:101E8000818370470A460021818B48F6FF73194011
:101E90004FF6FF7303EA02231943818370470A4612
:101EA0000021018B4FF6F7731940114301837047EE
:101EB0000A460021018B4FF2FF7319404FF6FF7362
:101EC00003EA02231943018370470A460021818BEC
:101ED0004FF6F77319401143818370470A4600217A
:101EE000818B4FF2FF7319404FF6FF7303EA022311
:101EF0001943818370470A460021018B4FF6FB731B
:101F000019401143018370470A460021018B4FF6A7
:101F1000FF3319404FF6FF7303EA0223194301838D
:101F200070470A460021818B4FF6FB73194011431D
:101F3000818370470A460021818B4FF6FF33194099
:101F40004FF6FF7303EA02231943818370470A4661
:101F50000021018B4FF67F731940114301837047B5
:101F60000A460021018BC1F30E014FF6FF7303EA0D
:101F700002231943018370470A460021818B4FF6E3
:101F80007F7319401143818370470A460021818B7A
:101F9000C1F30E014FF6FF7303EA02231943818355
:101FA00070470A460021018C4FF6FD73194011431A
:101FB000018470470A460021018C4FF6F7731940DF
:101FC0001143018470470A460021018C4FF6DF73EC
:101FD00019404FF6FF7303EA021319430184704757
:101FE0000A460021018C4FF67F7319404FF6FF73AC
:101FF00003EA02131943018470470A460021018C49
:102000004FF6FF5319404FF6FF7303EA02231943BB
:10201000018470470A460021018C4FF2FF7319407A
:102020004FF6FF7303EA02231943018470470A46FF
:102030000021018C4DF6FF7319404FF6FF7303EA40
:10204000023319430184704730B5002301248C40CA
:10205000A3B2048C9C430484048C02FA01F5ADB253
:102060002C43048430BD30B5002304248C40A3B23B
:10207000048C9C430484048C02FA01F5ADB22C4319
:10208000048430BD828B4FF2FF331A408283828BEF
:102090004FF6FF7303EA01231A4382837047F0B5BA
:1020A0000C461546002100220026078C4EF6FF7CC8
:1020B00007EA0C070784818B028C4FF6FF7707EA4B
:1020C000043640F6FF4739404FF6FF7707EA052709
:1020D00039434FF6FF7707EA0337394345F6FF7771
:1020E0003A4046F480573A4381830284F0BD828BA4
:1020F0004FF6F3731A408283828B0A4382837047C0
:10210000F0B50C461546002100220026078C4FF63C
:10211000FF6C07EA0C070784818B028C4FF6FF7770
:1021200007EA04264FF60C7739404FF6FF7707EAA7
:1021300003172F4339434FF2FF573A4046F4807755
:102140003A4381830284F0BD028B4FF2FF331A4081
:102150000283028B4FF6FF7303EA01231A430283C3
:102160007047F0B50C461546002100220026078C6A
:102170004FF6EF7C07EA0C070784018B028C4FF6C1
:10218000FF7707EA041640F6FF4739404FF6FF771E
:1021900007EA033739434FF6FF7703E000000140B9
:1021A0000004014007EA052739434FF65F773A40BC
:1021B00046F010073A4301830284F0BD028B4FF6CC
:1021C000F3731A400283028B0A4302837047F0B50F
:1021D0000C46154600210022068C4FF6FE773E4045
:1021E0000684018B028C4FF60C7631407E1C06EA89
:1021F00003162E4331434FF6F576324044F0010684
:10220000324301830284F0BD70B505460C46208838
:1022100050B92389A28861882846FFF7D8FFE18852
:102220002846FFF7CBFF25E0208804280AD1238920
:10223000A28861882846FFF794FFE1882846FFF7C7
:1022400083FF17E0208808280AD12389A2886188A3
:102250002846FFF755FFE1882846FFF748FF09E0C9
:102260002389A28861882846FFF719FFE18828465C
:10227000FFF708FF70BD00210180418001218180AE
:102280000021C180018170472DE9F04105460C46CF
:1022900000260127608808B9022600E00026A088F1
:1022A000012801D1022700E001272088A0B9238955
:1022B000A28861882846FFF78AFFE1882846FFF751
:1022C0007DFF23893A4631462846FFF74AFFE188D9
:1022D0002846FFF739FF13E02389A2886188284642
:1022E000FFF73FFFE1882846FFF72EFF23893A4694
:1022F00031462846FFF76BFFE1882846FFF75EFF6F
:10230000BDE8F0810146486B70470146886B704715
:102310000146C86B70470146086C70470A884B88B5
:102320001A438B881A43CB881A430B891A434B896B
:102330001A438B891A43A0F844207047002101807A
:1023400041808180C180018141818181704731B1AB
:10235000B0F8442042F40042A0F8442005E0B0F870
:102360004420C2F30E02A0F84420704721B18288B5
:1023700042F00402828004E082884FF6FB731A4028
:102380008280704721B1828842F00102828004E09D
:1023900082884FF6FE731A40828070471AB1838993
:1023A0000B43838102E083898B4383817047818261
:1023B000704702460020138A0B400BB1012000E059
:1023C00000207047CA430282704730B502460020A1
:1023D00000230024158A05EA0103958905EA010412
:1023E00013B10CB1012000E0002030BDCA430282CD
:1023F000704741EA0203A0F8483070471AB1838958
:102400000B43838102E083898B438381704721B131
:10241000828842F00802828004E082884FF6F773D7
:102420001A408280704701894FF6F872114001818D
:1024300070470A46002101894FF68F7319401143F6
:102440000181704730B504460D4629462046FFF706
:10245000F0FF208940F00700208130BD2DE9F041D8
:1024600004460D4616461F46602D06D13B46012206
:1024700031462046FFF775FE05E03B460122314616
:102480002046FFF7A4FE29462046FFF7D2FF208909
:1024900040F007002081BDE8F08130B50C460021F6
:1024A0000189C9B24FF6FF7505EA03251543254397
:1024B0002943018130BD2DE9F04105460E461746FE
:1024C0009846002443463A4631462846FFF7E5FF42
:1024D0002C894FF6F870044044F007044FF68F70D3
:1024E000044044F070042C81BDE8F081F0B504464E
:1024F0000D4616461F463B46324629462046FFF704
:10250000CCFF208940F480402081F0BD82884FF6C6
:102510008F731A40828082880A43828070470289C2
:102520004FF6F8731A40028102890A43028170470C
:1025300002894FF67F731A40028102890A430281A1
:102540007047F0B50C4615461E46002100220023B8
:102550000189028B038C4FF6F877394021434FF6FF
:10256000FC473A4040F201173A434FF6DD773B40D3
:102570004FF6FF7707EA06172F433B43018102839B
:102580000384F0BD21B1828842F08002828004E0A1
:1025900082884FF67F731A4082807047A0F85010EF
:1025A0007047000010B50446FA48844208D1012162
:1025B0001020FFF700F900211020FFF7FCF857E08A
:1025C000F548844209D101214804FFF7E3F80021CE
:1025D0004FF40030FFF7DEF84AE0F048844209D1BA
:1025E00001218804FFF7D6F800214FF48020FFF77F
:1025F000D1F83DE0EA48844209D10121C804FFF73F
:10260000C9F800214FF40020FFF7C4F830E0E54896
:10261000844209D101210805FFF7BCF800214FF4DD
:102620008010FFF7B7F823E0DF48844208D101218A
:102630002020FFF7C0F800212020FFF7BCF817E0AA
:10264000DA48844209D101218807FFF7A3F8002165
:102650004FF08040FFF79EF80AE0D548844207D14A
:1026600001214005FFF796F800216005FFF792F879
:1026700010BD2DE9FF4705460E460024A14600BFC8
:10268000A046B08900B100BF2C8A24F44054F088E1
:1026900004432C82AC8941F20C608443B0883189B8
:1026A0000843718908430443AC81AC8A24F4407424
:1026B000B0890443AC826846FEF7FDFEB54885420A
:1026C00002D0B948854202D1DDF80C9001E0DDF876
:1026D0000890A88900F4004040B109EBC90000EB64
:1026E000091031684900B0FBF1F707E009EBC900B8
:1026F00000EB091031688900B0FBF1F76420B7FBEB
:10270000F0F004012009642101FB1078A88900F48D
:10271000004040B1322000EBC800B0FBF1F000F007
:102720000700044308E0322000EB08106421B0FBEE
:10273000F1F000F00F0004432C81BDE8FF874FF457
:102740001651016000218180C18001810C214181ED
:1027500000218181704710B502460020108A20F4C4
:1027600070600B884C8823438C882343CC88234398
:102770001843108210BD0021018041808180C180FA
:10278000704721B1828942F40052828104E082893B
:102790004DF6FF731A4082817047028B02F47F422C
:1027A0000283028B0A430283704721B1828942F47B
:1027B0000042828103E08289C2F30E028281704767
:1027C00021B1828A42F40062828204E0828A4FF25E
:1027D000FF731A4082827047C1F3080282807047FB
:1027E00001468888C0F308007047028A4FF6F073EC
:1027F0001A400282028A0A430282704721B182890A
:1028000042F00202828104E082894FF6FD731A4091
:102810008281704782894FF2FF731A4082818289D8
:102820000A4382817047028A4FF6DF731A400282A0
:10283000028A0A430282704721B1028A42F480422E
:10284000028204E0028A4BF6FF731A40028270474C
:10285000818941F001018181704721B1828A42F072
:102860000802828204E0828A4FF6F7731A4082825D
:102870007047028BD2B20283028B42EA01220283AA
:10288000704721B1828A42F02002828204E0828A6B
:102890004FF6DF731A408282704721B1828A42F07C
:1028A0001002828204E0828A4FF6EF731A4082821D
:1028B0007047828A4FF6FB731A408282828A0A43EB
:1028C0008282704721B1828A42F00202828204E051
:1028D000828A4FF6FD731A40828270471AB1838A4A
:1028E0000B43838202E0838A8B4383827047F0B577
:1028F0000346002400260025002040F66A17B9424E
:1029000000D100BF1846C1F3421401F01F06012791
:1029100007FA06F5012C01D10C3004E0022C01D19C
:10292000103000E014301AB107682F43076002E04E
:102930000768AF430760F0BD02460020B1F5007F95
:1029400000D100BF13880B400BB1012000E0002034
:10295000704701F40072B2F5007F00D100BFCA4396
:102960000280704770B50246002400230025002035
:1029700040F66A16B14200D100BFC1F3421501F022
:102980001F03012606FA03F3012D13D19689334064
:1029900017E00000001001400044004000480040E3
:1029A000004C0040005000400014014000780040FE
:1029B000007C0040022D02D1168A334001E0968A45
:1029C00033400C12012606FA04F41688344013B181
:1029D0000CB1012000E0002070BD10B500220023E2
:1029E00040F66A14A14200D100BF0A1201249440AB
:1029F000A3B2DC43048010BD10B504466FF00400A0
:102A0000FDF7E2FEE11704EB5171C1F3C701394A4A
:102A100011701046007800EB4001C1EBC0104FF67A
:102A2000FF7101EAC0003449088010BD0146314AF7
:102A300012784A434FF0E0235A6100229A611A4605
:102A4000126942F001021A6100BF4FF0E0221069E2
:102A500000F001021AB100F48032002AF5D04FF0E4
:102A6000E022126922F001024FF0E0231A610022F5
:102A70009A6170470146204A12884A434FF0E0238A
:102A80005A6100229A611A46126942F001021A61E3
:102A900000BF4FF0E022106900F001021AB100F40B
:102AA0008032002AF5D04FF0E022126922F00102B4
:102AB0004FF0E0231A6100229A61704770B5044616
:102AC0004FF4077094FBF0F0C6B24FF4077094FB1C
:102AD000F0F100FB114085B205E04FF40770FFF7FD
:102AE000C9FF701EC6B2002EF7D115B12846FFF7F8
:102AF000C1FF70BD240000202600002000BF7047E9
:102B000000BF4C4A128802F04002002AF9D0C2B23B
:102B1000484B9A80704710B588B00446012108469A
:102B2000FEF79AFD01211020FEF7F0FD0722092192
:102B30004148FEF77EFB07220A213F48FEF779FB5A
:102B40004FF4C060069002208DF81C008DF81D0027
:102B500000208DF81E0001208DF81F0006A93648C0
:102B6000FEF7DCFA02940020ADF80C00ADF80E0080
:102B7000ADF81000ADF814000C20ADF8120002A959
:102B80002C48FFF776FD01212A48FFF7FAFD0122C4
:102B900040F225512748FFF7AAFE25208DF80400B2
:102BA00003208DF805008DF8060001208DF8070040
:102BB00001A8FDF7BCFD08B010BD10B540F22551CD
:102BC0001C48FFF7CFFE10B31A48FFF709FEC4B246
:102BD0001A48008800F40040C8B91848008800F47A
:102BE000804060B10A2C03D000201449088020E006
:102BF0001248008840F400401049088019E00D2C6C
:102C000006D10E48008840F480400C49088010E04E
:102C10000A480088C0F30D0009490C540748008891
:102C2000401C0649088008460088C72801DD0020AE
:102C3000088010BD00100140000002402C00002060
:102C40009000002070B504460E462EB14FF480610E
:102C5000F748FEF7DFFA04E04FF48061F448FEF72E
:102C6000DBFA4FF48071F248FEF7D6FA00251BE03C
:102C70004FF48071EF48FEF7CFFA04F0800028B1DE
:102C80004FF48041EA48FEF7C5FA04E04FF4804172
:102C9000E748FEF7C1FA4FF48071E648FEF7BAFA4A
:102CA0006006040E681CC5B2082DE1DB4FF480718C
:102CB000DF48FEF7AFFA4FF48061DD48FEF7AAFA6D
:102CC00070BD10B504461CB90021A620FFF7BAFF5D
:102CD000012C03D10021A720FFF7B4FF10BD10B5D0
:102CE00004463CB90021C820FFF7ACFF0021A12019
:102CF000FFF7A8FF012C07D10021C020FFF7A2FF9A
:102D00000021A020FFF79EFF10BD10B500218D20EF
:102D1000FFF798FF00211420FFF794FF0021AF2058
:102D2000FFF790FF10BD10B500218D20FFF78AFF3F
:102D300000211020FFF786FF0021AE20FFF782FF61
:102D400010BD70B500241CE004F1B001C8B2002130
:102D5000FFF778FF00210220FFF774FF0021102009
:102D6000FFF770FF002508E0B34901EBC501085DDE
:102D70000121FFF767FF681CC5B2802DF4DB601CE2
:102D8000C4B2082CE0DB70BD70B500240CE0002557
:102D900006E00020A84901EBC5010855681CC5B232
:102DA000802DF6DB601CC4B2082CF0DBFFF7C9FFF6
:102DB00070BDF0B514460B46CF1701EB5777C7F33C
:102DC000C702CF1701EB5777FF10A1EBC707FEB281
:102DD0000123B340DDB24CB1974B03EBC0039B5CC6
:102DE0002B43954F07EBC007BB541AE0924B03EB04
:102DF000C0039B5CDB43904F07EBC007BB548E4B7B
:102E000003EBC0039B5C2B438B4F07EBC007BB540A
:102E1000894B03EBC0039B5CDB43874F07EBC00789
:102E2000BB54F0BD2DE9FF4F84B081468A46002097
:102E3000029083460698A0EB09040798A0EB0A06C7
:102E4000CDF80490CDF800A0002C01DD012705E0AD
:102E50000CB9002702E04FF0FF376442002E02DD7C
:102E60004FF0010806E016B94FF0000802E04FF0FD
:102E7000FF386642B44201DD254600E035460020B9
:102E800003901EE0009AD1B2019AD0B2119AFFF7D6
:102E900090FF029820440290B3440298A84205DDB6
:102EA0000298401B0290019838440190AB4504DD24
:102EB000ABEB050B0098404400900398401C80B297
:102EC0000390691C03988842DCDB08B0BDE8F08FF2
:102ED0002DE9F04306460F4690460025444643E060
:102EE0003A1BD1B27219D0B20122FFF762FF3A1B2E
:102EF000D1B2721BD0B20122FFF75BFF3A19D1B2F7
:102F0000721BD0B20122FFF754FF3A19D1B27219E5
:102F1000D0B20122FFF74DFF7A19D1B23219D0B2E7
:102F20000122FFF746FF7A1BD1B23219D0B201223B
:102F3000FFF73FFF7A1BD1B2321BD0B20122FFF75D
:102F400038FF7A19D1B2321BD0B20122FFF731FF1C
:102F50006D1C05FB05F004FB040008FB1809B9F122
:102F6000000F01DD641E6D1E6000604308FB08F168
:102F70008842B5DABDE8F0832DE9FE4F0746884662
:102F800092461C460197CDF80080082C02D14FF0E4
:102F900006091FE02046E31704EB5373DB102146BC
:102FA0004FEAE47C04EB5C7C4FEAEC0CA4EBCC0C29
:102FB000BCF1000F02D04FF0010C01E04FF0000C0B
:102FC0006344224604EBD27C4FEA6C0C03FB0CF307
:102FD00003F0FF09AAF12000C6B200256DE0082C1D
:102FE00007D106EB4600154901EB400010F805B08B
:102FF0002CE00C2C07D106EB4600114901EB8000B8
:1030000010F805B022E0102C05D10E4800EB061098
:1030100010F805B01AE0182C07D106EBC6000A49D3
:1030200001EB800010F805B010E0BDE8FE8F000055
:1030300000100240000C024058010020F85E000819
:103040002061000894650008846B0008002002904D
:103050001CE00BF0010028B1414638460C9AFFF7FE
:10306000A8FE09E00C9808B9012000E00020024603
:1030700041463846FFF79DFE4FEA6B0B08F1010011
:1030800000F0FF080298401CC0B202900298082885
:10309000DFDB781CC7B2082C0BD004EBD4714A10CC
:1030A0000199791A8A4204D1019F00980830C0B270
:1030B0000090DDF80080681CC5B24D458FDB00BF75
:1030C000B3E72DE9F84106460F4614461D46DDF8E4
:1030D0001C8013E0CDF8008022782B46394630461C
:1030E000FFF74AFF082D02D1B01DC6B205E0284601
:1030F00005EBD07106EB6101CEB2641C94F90000BF
:10310000202803DB94F900007E28E3DDBDE8F88188
:1031100010B50246012000E050430B1EA1F101044E
:10312000E1B2F9D110BD2DE9FF4F82B006469146BC
:103130001F46DDE90F4A4FF0000B082C01D14FF07C
:10314000020B002530E0781B401EC1B20A20FFF7B9
:10315000DFFFB9FBF0F00A21B0FBF1F201FB12082E
:10316000B8F1000F0ED104EBD4710BEB610101FB40
:103170000561C8B223463022CDE900A40399FFF7C8
:10318000FBFE0FE004EBD4710BEB610101FB056169
:10319000C8B208F13001CAB22346CDE900A40399B0
:1031A000FFF7EAFE681CC5B2BD42CCDB06B0BDE845
:1031B000F08F2DE9FF4F82B0064617469A46DDE9AB
:1031C0000F480025A946082C01D14FF00209002F15
:1031D0000FDA04EBD47109EB610101FB0561C8B2A0
:1031E00023462D22CDE900840399FFF7C5FE7F42D7
:1031F0000DE004EBD47109EB610101FB0561C8B27C
:1032000023462022CDE900840399FFF7B5FE01256E
:1032100030E0AAEB0500C1B20A20FFF779FFB7FB47
:10322000F0F00A21B0FBF1F201FB120BBBF1000F31
:103230000ED104EBD47109EB610101FB0561C8B249
:1032400023463022CDE900840399FFF795FE0FE075
:1032500004EBD47109EB610101FB0561C8B20BF10C
:103260003001CAB22346CDE900840399FFF784FEFA
:10327000681CC5B20AF101008542CADB06B0BDE890
:10328000F08F2DE9FF4F2DED020B83B00646174658
:103290001C46129D4FF00009082C01D14FF0020985
:1032A000B5EEC00AF1EE10FA07DB234620220095A6
:1032B00030460699FFF760FE0AE0F1EE400AB0EEF4
:1032C000600A23462D22009530460699FFF754FEEA
:1032D000F2EE040A60EE200AFDEEE00A10EE908A9B
:1032E0000A2098FBF0FA98FBF0F100FB11804FFAEE
:1032F00080FBCDE9004504EBD47109EB6101314459
:10330000C8B2B91ECBB2524602940699FFF70BFF22
:1033100004EBD47109EB6102791E01FB0261C8B2B2
:1033200023462E22009502940699FFF725FECDE94B
:10333000004504EBD47109EB610107FB0161C8B2E0
:1033400001235A4602940699FFF7EDFE09B0BDE845
:10335000F08F2DE9FC4F0746884616461C46BB46B3
:10336000CDF804802046E21704EB5272D2102146B9
:10337000E31704EB5373DB10A4EBC3030BB101237E
:1033800000E000231A44624392B20092002555E007
:10339000102C05D1E34800EB461010F805A01BE007
:1033A000182C07D106EBC600DF4901EBC00010F86E
:1033B00005A011E0202C05D1DC4800EBC61010F868
:1033C00005A009E0402C05D1D94800EB462010F8B3
:1033D00005A001E0BDE8FC8F4FF000091CE00AF0F9
:1033E000010028B1414638460B9AFFF7E2FC09E09C
:1033F0000B9808B9012000E00020024641463846FB
:10340000FFF7D7FC4FEA6A0A08F1010000F0FF0855
:1034100009F1010000F0FF09B9F1080FDFDB781CAA
:10342000C7B2A7EB0B00A04204D15F460198083059
:10343000C0B20190DDF80480681C85B20098854216
:10344000A6DB00BFC6E708B580468946924600263F
:1034500000274BE04FB91023324618218020CDF8C9
:1034600000A0FFF776FF701CC6B2464522D14FF090
:10347000000B1AE0012410E000250AE0AD4800EB43
:10348000C400415D601EAB4A02EBC0004155681CA0
:10349000C5B2082DF2DB601CC4B2902CECDBFFF748
:1034A00050FC0BF1010000F0FF0B4FEA09105845EA
:1034B000E0DC0026781CC7B2102F00D100270124C1
:1034C00010E000250AE09B4800EBC400415D601E4F
:1034D000984A02EBC0004155681CC5B2082DF2DBCA
:1034E000601CC4B2902CECDBFFF72BFCB2E72DE99B
:1034F000FF4F05460E4617461C46DDF838904FF044
:10350000000A0095B3462046E21704EB5272D2102F
:103510002146E31704EB5373DB10A4EBC3030BB199
:10352000012300E000231A44D4B24FF0000845E024
:10353000002003903BE00D9810F80A0002900AF179
:1035400001001FFA80FA002001901DE0029800F0AF
:10355000010028B14A4631462846FFF72AFC0AE016
:10356000B9F1000F01D1012000E0002002463146F0
:103570002846FFF71EFC029840100290701CC6B24D
:103580000198401CC0B2019001980828DEDB681C3D
:10359000C5B20098281AB84204D1009D0BF108006A
:1035A00000F0FF0B5E460398401CC0B203900398E6
:1035B000B842C0DB08F1010000F0FF08A045B7DB0E
:1035C000BDE8FF8F1CB501211820FEF745F84FF428
:1035D000A060009001208DF8040000208DF8060006
:1035E00003208DF8050001208DF807006946524838
:1035F000FDF794FD4FF480614F48FDF70BFE4FF44B
:10360000AA40009001208DF8040000208DF80600EB
:1036100003208DF8050001208DF807006946474812
:10362000FDF77CFD4FF480514448FDF7F5FDC820BF
:10363000FFF744FA4FF480514048FDF7EBFD0021BD
:10364000AE20FFF7FFFA00210846FFF7FBFA002142
:103650001020FFF7F7FA00214020FFF7F3FA0021CE
:103660008120FFF7EFFA0021CF20FFF7EBFA0021CE
:10367000A120FFF7E7FA0021C820FFF7E3FA0021B5
:10368000A620FFF7DFFA0021A820FFF7DBFA0021D0
:103690003F20FFF7D7FA0021D320FFF7D3FA00210C
:1036A0000846FFF7CFFA0021D520FFF7CBFA00211B
:1036B0008020FFF7C7FA0021D920FFF7C3FA0021C5
:1036C000F120FFF7BFFA0021DA20FFF7BBFA002153
:1036D0001220FFF7B7FA0021DB20FFF7B3FA002131
:1036E0004020FFF7AFFA00212020FFF7ABFA0021BE
:1036F0000220FFF7A7FA00218D20FFF7A3FA00218F
:103700001420FFF79FFA0021A420FFF79BFA002165
:10371000A620FFF797FAFFF737FB0021AF20FFF74E
:1037200091FA1CBDE0780008407A0008887A000809
:10373000087B000858010020000C024000100240E5
:1037400000B58DB001210320FDF786FF012108029D
:10375000FDF7DCFFE0200B9003208DF83000002007
:103760008DF833000BA94848FDF7D8FC03200B90D7
:103770008DF8300000208DF833000BA94348FDF789
:10378000CDFC01210802FEF716F800214FF48070ED
:10379000FEF711F8002007900A9009904FF480304E
:1037A000089007A8FDF768F80020019001208DF827
:1037B00008008DF8090000200390059005208DF881
:1037C000180001A93248FDF728F807230122052136
:1037D0002F48FDF7A8F80723022206212C48FDF701
:1037E000A2F80723032219462948FDF79CF807236E
:1037F000042208212648FDF796F80723052209210F
:103800002348FDF790F801212148FDF737F9012100
:103810001F48FDF728F901211D48FDF744F81C4811
:10382000FDF7DDF80DB000BD00B58FB001218805B2
:10383000FDF712FF0020009015484C30019015480C
:1038400002900020039003200490002005904FF484
:103850008060069040000790800008904011099019
:1038600000020A9000200B9001200C9000200D9087
:103870000E9069460848FDF799FA01210648FDF7C0
:10388000CFFA0FB000BD000000000240000402406B
:1038900000200140D80500201064024030B58BB0F4
:1038A00005460C4601210220FDF730FF01210420CE
:1038B000FDF7D2FE03220621E648FDF7BAFC0322FB
:1038C0000721E448FDF7B5FC03220821E148FDF794
:1038D000B0FC03220921DF48FDF7ABFC4FF4707008
:1038E000099002208DF8280000208DF82A00012080
:1038F0008DF82B0003208DF8290009A9D548FDF784
:103900000DFC0020ADF81A000795ADF81840ADF891
:10391000200006A9D048FEF7A0F86020ADF804000A
:103920000020ADF810000120ADF8060001A9CA483A
:10393000FEF728F901A9C848FEF75DF901A9C648B4
:10394000FEF7A6F901A9C448FEF708FA0821C24803
:10395000FEF7A5FA0821C048FEF7AAFA0821BE48DA
:10396000FEF7B3FA0821BC48FEF7B8FA0021BA48BE
:10397000FEF761FA0021B848FEF75FFA0021B64869
:10398000FEF75DFA0021B448FEF75BFA0121B24868
:10399000FEF7DDFC0121B048FEF7CAF80121AE4870
:1039A000FEF7E4F80BB030BD30B58BB005460C46E1
:1039B00001210846FDF7AAFE01210846FDF74CFE4D
:1039C00001211020FDF748FE01220821A348FDF740
:1039D00030FC01220B21A248FDF72BFC01220D2116
:1039E0009F48FDF726FC01220B219C48FDF721FC96
:1039F0004FF41060099002208DF8280000208DF807
:103A00002A0001208DF82B0003208DF8290009A938
:103A10009248FDF783FB4FF42050099002208DF867
:103A2000280000208DF82A0001208DF82B000320AB
:103A30008DF8290009A98A48FDF770FB0020ADF830
:103A40001A000795ADF81840ADF8200006A9854882
:103A5000FEF703F86020ADF804000020ADF8100078
:103A60000120ADF8060001A97E48FEF78BF801A9F8
:103A70007C48FEF7C0F801A97A48FEF709F901A9C8
:103A80007848FEF76BF908217648FEF708FA082116
:103A90007448FEF70DFA08217248FEF716FA08215D
:103AA0007048FEF71BFA00216E48FEF7C4F90021AA
:103AB0006C48FEF7C2F900216A48FEF7C0F9002100
:103AC0006848FEF7BEF901216648FEF740FC012177
:103AD0006448FEF72DF801216248FEF747F80BB065
:103AE00030BD10B5312142F2CF00FFF75DFF31212B
:103AF00042F2CF00FFF7D2FE10BD70B504460D466E
:103B0000B4F90800A84202DAB4F9085007E0B4F9A1
:103B100008004042A84202DDB4F90800454228B23C
:103B200060805148844222D1B4F9020000280DDDA2
:103B300042F2D0014B48FEF77EF9B4F9020042F29E
:103B4000D002111A4748FEF77CF910E0B4F90200E0
:103B500000280CDA42F2D0014248FEF772F9B4F9BB
:103B6000020042F2D00281183E48FEF764F93F4855
:103B7000844222D1B4F9020000280DDD42F2D001C6
:103B80003848FEF75CF9B4F9020042F2D002111A8B
:103B90003448FEF752F910E0B4F9020000280CDABC
:103BA00042F2D0012F48FEF748F9B4F9020042F280
:103BB000D00281182B48FEF742F92D48844222D1C9
:103BC000B4F9020000280DDD42F2D0012248FEF7D0
:103BD00032F9B4F9020042F2D002111A1E48FEF77F
:103BE0002CF910E0B4F9020000280CDA42F2D001FE
:103BF0001948FEF722F9B4F9020042F2D002811806
:103C00001548FEF718F91B48844222D1B4F9020086
:103C100000280DDD42F2D0010F48FEF712F9B4F989
:103C2000020042F2D002111A0B48FEF708F910E028
:103C3000B4F9020000280CDA42F2D0010648FEF77F
:103C4000FEF8B4F9020042F2D00281180248FEF7F1
:103C5000F8F870BD00080240000401400000024076
:103C600000100240000001402E000020380000201B
:103C7000420000204C000020BBEE0E0A824880ED7E
:103C8000000A9FED820A80ED010A9FED800A80ED17
:103C9000020A90ED000A7E4880ED000A7A4890ED15
:103CA000010A7B4880ED010A774890ED020A7848C6
:103CB00080ED020A9FED750A734880ED040A9FEDBE
:103CC000730A80ED050A9FED710A80ED060A9FEDEB
:103CD0006F0A80ED070A9FED6F0A80ED080A002049
:103CE000694948629FED690A694880ED040A9FEDC1
:103CF000670A80ED050A9FED650A80ED060A9FEDD3
:103D0000630A80ED070A9FED630A80ED080A002030
:103D10005F4948629FED5D0A5F4880ED040A9FEDB0
:103D20005B0A80ED050A9FED590A80ED060A9FEDBA
:103D3000570A80ED070A9FED570A80ED080A002018
:103D4000554948627047024600EE901AF8EEE00AC4
:103D500070EE600AC2ED040AD2ED070A92ED041A71
:103D600070EE810AC2ED070AD2ED070A9FED4B1AE9
:103D7000F4EEC10AF1EE10FA02DDDFED480A0DE0C3
:103D8000D2ED070A9FED461AF4EEC10AF1EE10FAE1
:103D900002D2DFED430A01E0D2ED070AC2ED070AC5
:103DA000D2ED000A92ED041A60EE810A92ED011A3A
:103DB000D2ED071A41EE210A92ED041AD2ED051A4E
:103DC00031EE611AD2ED021A41EE810AFDEEE00AEF
:103DD000C2ED090AD2ED040AC2ED050AD2ED090AC4
:103DE000F8EEE00A92ED081AF4EEC10AF1EE10FACC
:103DF00006DDD2ED080AFDEEE00AC2ED090A14E084
:103E0000D2ED090AF8EEE00A92ED081AB1EE411A75
:103E1000F4EEC10AF1EE10FA07D2D2ED080AF1EE83
:103E2000600AFDEEE00AC2ED090A908C00B270470C
:103E3000154880ED000AC0ED010A80ED021A7047B6
:103E4000134880ED000AC0ED010A80ED021A7047A8
:103E5000114880ED000AC0ED010A80ED021A70479A
:103E6000094890ED000A0A4880ED000A064890EDE6
:103E7000010A074880ED010A034890ED020A044850
:103E800080ED020A70470000E405002000000000F9
:103E90000C060020004003463406002000007A444F
:103EA00000007AC47FB505460C4601212020FDF7AD
:103EB0001CFC0295ADF804400020ADF80600ADF8FA
:103EC0000C0001A97F48FDF7C8FD012211467D487D
:103ED000FEF764FA01217B48FDF748FE37208DF894
:103EE000000001208DF801008DF802008DF803001C
:103EF0006846FCF71CFC7FBD10B52DED088B012139
:103F00007048FEF762FA01287ED16F4800886F4939
:103F100008806D48408848806B48808888806C485D
:103F20000078012871D16B49088801F072FD41ECDD
:103F30001B0B9FED690B53EC102B01F07DFD41EC49
:103F4000190B6249088801F064FD41EC1B0B9FEDE1
:103F5000640B53EC102B01F06FFD41EC1A0B53EC8A
:103F6000192B01F081FC41EC180B01F025FD57499C
:103F700008805849088801F04CFD41EC1B0B9FED6F
:103F8000560B53EC102B01F057FD41EC180B4F4929
:103F9000488801F03EFD41EC1B0B9FED510B53ECAB
:103FA000102B01F049FD41EC1A0B53EC182B01F0DA
:103FB0005BFC41EC190B01F0FFFC4449488045498A
:103FC000088801F026FD41EC1B0B9FED430B53ECE1
:103FD000102B01F031FD41EC190B3C49888801F0B0
:103FE00018FD41EC1B0B9FED3E0B53EC102B01F029
:103FF00023FD41EC180B53EC192B01F035FC41EC7F
:104000001A0B01F0D9FC01E055E04AE02F49888005
:10401000084600882F4908802C48408848802B4853
:10402000808888802948008800EE900AF8EE600AAF
:10403000B0EE600A2C4800F064FB2448408800EE93
:10404000900AF8EE600AB0EE600A284800F059FBCA
:104050001E48808800EE900AF8EE600AB0EE600A12
:10406000234800F04EFB204890ED020ABDEEC00A46
:1040700010EE101A1F4890ED000A1F48FFF763FE6C
:104080001E490860194890ED020ABDEEC00A10EE04
:10409000101A1B4890ED000A1A48FFF754FE1A49FF
:1040A0000860164801681948FFF727FD164801689F
:1040B0001748FFF722FD01210248FEF797F9BDECF2
:1040C000088B10BD00140040D805002078000020A7
:1040D0007000002072000020666666666666E63F35
:1040E000333333333333D33FA4070020C0070020DA
:1040F000DC07002058000020E405002064000020B8
:104100005C0000200C060020680000202E0000202B
:104110003800002010B5732000F0B0F9352000F011
:10412000ADF92D2000F0AAF9302000F0A7F92320E6
:1041300000F0A4F90A20FEF7C1FC012070490870C4
:10414000002008704FF47A70FEF7B8FC00206D492B
:10415000087010BD10B5722000F090F9362000F004
:104160008DF9232000F08AF942F210706649086048
:1041700000BF6648007838B9634801680068401E8F
:10418000614A10600029F4D16048007800286CD0A2
:10419000002460E05E48005D6D285AD15C49601CD7
:1041A000085C6D2855D1002C0CDD601E085C3028A1
:1041B00008DB601E085C392804DC601E085C3038AF
:1041C00054490880012C13DDA01E5149085C302899
:1041D0000EDBA01E085C39280ADCA01E085C303803
:1041E00000EB80004B49098801EB400049490880F9
:1041F000022C15DDE01E4649085C302810DBE01E6D
:10420000085C39280CDCE01E085C303800EBC0018B
:1042100001EB00103F49098801EB80003D4908800F
:10422000032C15DD201F3A49085C302810DB201FC5
:10423000085C39280CDC201F085C303800EB40019A
:10424000C1EBC0103349098801EBC0003149088037
:1042500005E0601CC4B22B48007884429ADB00BFA2
:1042600000202A4908702749087010BD10B527485A
:10427000007800283DD12848FEF7B2FAC1B22148A3
:1042800002780078401C1F4B187021488154184652
:104290000078022825DD1A480078012810D1184638
:1042A0000078801E1A49085C6F2827D118460078CC
:1042B000401E085C6B2821D10220114908701DE0C6
:1042C00010480078401E1249085C6D2816D10D4830
:1042D0000078801E085C6D2810D101200B49087001
:1042E0000CE008480078102808DB00200549087019
:1042F00004E00948FEF774FA0849087010BD000090
:10430000830000208100002088000020820000201F
:104310005C06002084000020004400408000002053
:1043200000BF6149098801F040010029F9D05E49C8
:10433000091D0880704730B502460B46002405E091
:1043400012F8010BFFF7ECFF601CC4B29C42F7DBD4
:1043500030BD10B588B0044601210846FDF77CF950
:1043600001214804FDF7C1F9072202214F48FCF75B
:1043700060FF072203214D48FCF75BFF0C200690ED
:1043800002208DF81C008DF81D0000208DF81E0005
:1043900001208DF81F0006A94448FCF7BFFE262027
:1043A0008DF8040003208DF805008DF8060001202B
:1043B0008DF8070001A8FCF7BAF902940020ADF8C7
:1043C0000C00ADF80E00ADF81000ADF814000C2094
:1043D000ADF8120002A93448FEF74BF9012240F271
:1043E00025513148FEF783FA01212F48FEF7C9F91C
:1043F00040212D48FEF7ADFA08B010BD2DE9F0417F
:1044000007460D461646002413E000BF80213846BB
:10441000FEF792FA0028F9D0295D3846FEF7DCF95C
:1044200000BF40213846FEF787FA0028F9D0601C0B
:10443000C4B2B442E9DBBDE8F08110B504462146C0
:104440001948FEF7C9F900BF80211748FEF774FA32
:104450000028F9D010BD10B504460BE000BF402184
:104460001148FEF769FA0028F9D014F8011B0E482C
:10447000FEF7B2F920780028F0D110BD00BF0A493C
:10448000098801F080010029F9D00749091D088039
:10449000704710B540F225510348FEF763FA08B1A2
:1044A000FFF7E4FE10BD00000044004000000240A1
:1044B00010B50146454803780078401C434C2070F5
:1044C0004348C1540078552803D00020224610707C
:1044D00010BD3E4800780B2800DAF9E73C484078E8
:1044E000512804D0522825D0532869D145E0394AB3
:1044F000374B9B1C1C6814605B685360002016E0FF
:10450000344A32F9102000EE102AB8EEC00ADFED6E
:10451000320A80EE201AB3EE000A21EE000A2D4A7C
:10452000083202EB800282ED000A421CD0B203285E
:10453000E6DB45E0294A264B9B1C1C6814605B683F
:104540005360002016E0254A32F9102000EE102AB0
:10455000B8EEC00A9FED201AC0EE010A9FED200AB6
:1045600020EE800A1D4A083202EB800282ED000A2A
:10457000421CD0B20328E6DB22E01A4A144B9B1CF3
:104580001C6814605B685360002016E0154A32F91D
:10459000102000EE102AB8EEC00A9FED0F1AC0EEF0
:1045A000010A9FED110A20EE800A0E4A083202EB42
:1045B000800282ED000A421CD0B20328E6DB00BF75
:1045C00000BF0020014A107000BF81E78C0000206E
:1045D000A806002094060020000000478006002066
:1045E0000000FA446C0600200000344310B588B087
:1045F000044601210220FDF72FF801218804FDF770
:1046000074F807220A212E48FCF713FE07220B211B
:104610002B48FCF70EFE4FF44060069002208DF808
:104620001C0003208DF81D0000208DF81E000120C5
:104630008DF81F0006A92248FCF770FD02940020A7
:10464000ADF80C00ADF80E00ADF81000ADF8140098
:104650000C20ADF8120002A91A48FEF70AF827202C
:104660008DF8040003208DF805008DF80600012068
:104670008DF8070001A8FCF75AF8012240F22551F5
:104680001048FEF734F901210E48FEF77AF808B019
:1046900010BD10B540F225510A48FEF763F940B14C
:1046A0000848001D0088C0F308042046FFF700FFFB
:1046B00000BF40F225510348FEF78FF910BD0000FE
:1046C0000004024000480040B7EE000A80ED000AF6
:1046D0009FED240A80ED010A9FED220A80ED020A77
:1046E0009FED200A80ED030A9FED1F0A80ED040A6A
:1046F0009FED1E0A80ED050A9FED1A0A80ED060A5D
:104700007047F0EE400A90ED000A90ED041A30EE8A
:10471000010A80ED010A90ED010A90ED051A30EED4
:10472000010A90ED011AC1EE001AC0ED031A90EDD6
:10473000020A90ED031AD0ED021A70EEE11A01EEB2
:10474000210A80ED020A90ED030AB7EE001A31EE5D
:10475000400A90ED011A20EE010A80ED000A90ED6A
:10476000020A704700000000BC74133CCDCCCC3D65
:10477000704700000FB4044910B503AA029800F076
:10478000E1FA10BC5DF814FB280000202DE9F0418F
:104790000E460446002020622046E168884730B378
:1047A000252805D0D4E901219047206A401CF2E772
:1047B000E168204600278847050018D0A5F1410090
:1047C000192802D820354FF4006732462946204682
:1047D0002760FBF713FD40B1012804D0F61D26F039
:1047E00007060836D8E7361DD6E72846DAE7206AF6
:1047F000BDE8F0812DE9F0410646002410687529D6
:10480000314616A510D0AFF30080002802DA4042EE
:1048100013A507E031688A0701D512A502E0490710
:1048200004D511A5012401E0AFF3008000210A2284
:1048300006F1240709E0B0FBF2FCB0FBF2F302FB47
:104840001C00303078541846491C0028F3D1234608
:104850002A463046BDE8F04100F00CB800000000E8
:104860002D0000002B000000200000007047704762
:10487000704770472DE9F0470D4699469246044629
:1048800000F124080168880604D5E06921F01001D0
:10489000216000E00120A84201DD471B00E0002765
:1048A000A1697A1902EB0900081AA0612078C006F4
:1048B00002D42046AFF30080002608E0D4E90121AD
:1048C0001AF806009047206A401C761C20624E456C
:1048D000F4DB2078C0060AD52046AFF3008006E05E
:1048E000D4E9012130209047206A401C2062381E04
:1048F000A7F10107F4DC07E0D4E9012118F805006D
:104900009047206A401C2062281EA5F10105F3DCB7
:104910002046AFF300802078000602D50220BDE8D3
:10492000F0870120FBE770472DE9FF4F0C461E463C
:104930004FF0FF378BB0D2E90001DDF860800A90BC
:104940008A46C1F30A5505B93D46002108464FF095
:104950000000BAF1000F00F4400005DA00EB80001F
:104960004FF4400101EA50004FEA9059B9F1010FAC
:1049700000DDB9460A9850EA4A000ED044F61050BD
:10498000A5F2FF3545432F14B8F1000F1ED0754234
:10499000291E1EDDC9F100021CE0B8F1010F4FF025
:1049A000000001D0302103E0F24305E02154401C17
:1049B000B042FBDB30460022002121540B99C1F8A4
:1049C0000880C1E900200FB0BDE8F08FBD1B6D1C51
:1049D000DEE74A4600DA694206A800F067FA06AB4D
:1049E00093E8070003AB83E8070050460A9900F0FC
:1049F00045FB8DE80700A0F500501F380090039894
:104A0000002D0ADD42F21F014A460844002303A993
:104A10000390684600F0AEFD09E0A0F500504A465C
:104A20001F38002303A90390684600F0B8FD8DE805
:104A300007000004000C03D04FF0FF30410800E0F5
:104A40001046B8F1000F03D00022009215461EE078
:104A5000751E05D400F08CF9303262556D1EF9D503
:104A6000B3460122084302D000227F1C04E02078D4
:104A7000302801D100227F1E002A099784D01DE032
:104A8000112D07DA00F074F9303262556D1C50EACE
:104A90000102F5D1084302D00098C8B10EE0002110
:104AA000681E05E0235C625C63542254401E491C6E
:104AB0008142F7DBAB46A81B401E0990002004F89A
:104AC0000B000B98099AC0F80880C0E9002B7AE720
:104AD00011264FF0000857E72DE9F04F88460446AD
:104AE000D21D22F0070191B0D1E90001CDE90A0100
:104AF00000F08CFE02460B98C00F01D02D2007E07D
:104B00002068810701D52B2002E0202101EAC000A6
:104B1000032A099001D0072A05DB034641462046B7
:104B200000F084F90BE12078800601D5E06900E00F
:104B30000620B8F1650F814606D0B8F1660F18D08F
:104B4000B8F1670F70D131E00020B9F1110F00907A
:104B500001DB112301E009F101030AAA01A90CA854
:104B6000FFF7E2FEDDE90C70002609F1010583463E
:104B700047E001204B4600904FF000470AAA01A9E8
:104B80000CA8FFF7D1FEDDE90DB00C995D460026BB
:104B900010B909F101000D18B9EB050003D4C0F1FB
:104BA000FF3609F10105A5EB09002BE0B9F1010F72
:104BB00001DA4FF001090020B9F1110F00904846C9
:104BC00001DD112300E003460AAA01A90CA8FFF7A2
:104BD000ABFEDDE90C704D460026834620780007C9
:104BE0000AD4AB4500DA5D4601A8012D04DD411968
:104BF00011F8011C302907D04F4502DA17F1040FD4
:104C000004DA012082460FE06D1EEEE7002F02DC81
:104C1000ED1B3E4403E0781CA84200DD7D1CB81B60
:104C200000F1010A4FF000472078000703D4AA459D
:104C300001DB4FF0FF3A0021B7F1004F0DF14308BF
:104C40008DF8431024D002202B23002F01DA7F425D
:104C50002D230A21021EA0F1010000DC5FB197FBA9
:104C6000F1FC97FBF1F201FB1C7C17460CF1300CB8
:104C700008F801CDEEE7A8F10100037021880905CD
:104C800001D5452100E06521A0F1010800F8011CD3
:104C900009980FA9A1EB0807FF1D00B101204119D8
:104CA00001EBEA70A1693844081A401EA06120781F
:104CB000C00602D42046AFF30080099828B1D4E999
:104CC00001219047206A401C20622078C00622D52E
:104CD0002046AFF300801EE0002E04DBB34502DD6A
:104CE00001A8805D00E03020D4E901219047206ACE
:104CF000401C2062761CAAF101005FEA000A0AD17A
:104D000000F032F8C0680168405CD4E901219047A6
:104D1000206A401C2062281EA5F10105DCDC07E0AA
:104D2000D4E9012118F8010B9047206A401C206249
:104D3000381EA7F10107F3DC2046AFF30080032003
:104D400011B041E6074B70B50D467B4400F05BF8AF
:104D50000446284600F01CF910B14FF0FF3070BD3A
:104D6000204670BDB3DDFFFF0048704718080020E3
:104D700030B5B0F10A024FEA900E71F100034EEA2D
:104D8000817EB0EB0E0061EB91014FEA101E4EEAFE
:104D9000017E10EB0E0041EB11114FEA102E4EEA8E
:104DA000016E10EB0E0041EB11214FEA104E4EEA5E
:104DB000014E10EB0E0041EB1141401841F1000192
:104DC0004FEAD00040EA41704FEAD10110EB800574
:104DD0004FEA810444EA907444EB01046D1944EBFA
:104DE0000404521BA3414FF0000348BF0A3200D510
:104DF00030BD401C41F1000130BD000001694A1C7A
:104E000002610878704700B58FB0CDE9013100210B
:104E1000059105497944CDE9031011466846FFF72D
:104E2000B5FC0FB000BD0000E5FFFFFF2DE9F0412C
:104E30001F46044603260168072A01F4006004DBCC
:104E400008B116A505E016A503E008B115A500E018
:104E500015A521F010002060A069C01EA0610FB14F
:104E6000401EA0612046AFF300804FB1D4E901217C
:104E700038469047206A401C2062C01C206206E031
:104E8000206AFAE7D4E9012115F8010B9047761E54
:104E9000F8D22046AFF30080BDE8F0814E414E00CD
:104EA0006E616E00494E4600696E66002DE9F0475E
:104EB000814616468AB0354878440DC88DE80D0005
:104EC00032487844801C03AC0DC884E80D0041F6DC
:104ED0009B300844372190FBF1F290FBF1F5A5F1EE
:104EE000800501FB12041B3C02D56442012000E056
:104EF0000020DFF898A080460027FA44AAF1BE0AF5
:104F00000EE0E0070AD03246684607EB470101236E
:104F10000AEB810100F043FB8DE8070064107F1C61
:104F2000002CEED1194F7F44AE3F19E0E80715D0B1
:104F300007EB04100DF1180A90E80E008AE80E0045
:104F4000C068F04201D1981908903246012306A9A1
:104F500003A800F024FB03AB83E807006D10641C7A
:104F6000002DE3D14FF0010332466946B8F1000F3E
:104F700003A802D000F0FEFA01E000F010FBC9E93E
:104F80000001C9F808200AB0BDE8F087C82E00006B
:104F9000007B00F08000704700487047F807002051
:104FA0007546FFF7F9FFAE4605006946534620F007
:104FB0000700854618B020B5FBF7A2FBBDE82040EE
:104FC0004FF000064FF000074FF000084FF0000BC5
:104FD00021F00701AC46ACE8C009ACE8C009ACE878
:104FE000C009ACE8C0098D46704710B50446AFF360
:104FF00000802046BDE81040FBF71FB94FF0013C90
:1050000050F8042B51F8043B9A4221D1A2EB0C0337
:10501000934313EACC1317D150F8042B51F8043BF7
:105020009A4215D1A2EB0C03934313EACC130BD194
:1050300050F8042B51F8043B9A4209D1A2EB0C031F
:10504000934313EACC13DBD04FF00000704700BF4E
:10505000D01A01BAB1FA81F101F0180122FA01F077
:10506000CB40C1F12001DBB2C0B2C01A2CFA01F36F
:10507000D11A914311EAC311E6D170475FEA400C9F
:1050800008BF91F0000F4FEA8C234FEAC12243EA98
:1050900051514FEA1C5018BF00F5F0404FEA300064
:1050A00018BF41F000415FEA6C5C00F02980BCF160
:1050B000FF3F08BF40F080407047130C06BF12044A
:1050C0004FF0100C4FF0000C130E04BF12020CF145
:1050D000080C130F04BF12010CF1040C930F04BF52
:1050E00092000CF1020CD30F04BF52000CF1010C22
:1050F00011464FF00002A0F11F00A0EB0C0070471A
:1051000011F0004F08BF704731F000413FF4D5AFB8
:105110000B0C06BF09044FF0100C4FF0000C0B0EE7
:1051200004BF09020CF1080C0B0F04BF09010CF1BC
:10513000040C8B0F04BF89000CF1020CCB0F04BFD1
:1051400049000CF1010CCCF12003A0EB0C0022FA79
:1051500003F302FA0CF241EA030100F10100704787
:1051600020F07F4C80EA030023F07F47ACEB07037D
:1051700003F57C5300F0004003F1FF032DE9804963
:105180004FEA154B09B44FEA144325EA0B4E24EAC3
:1051900003480FF2042606EB132749083E785FEA1E
:1051A000320203FB0667C7F5000707FB06F64FEA66
:1051B00054374FEAD64606F1020607FB066CCCF1DF
:1051C000005C4FEA1C472CEA074C07FB06F40CFB7B
:1051D00006F504EB15464FEA961634BF00204FF053
:1051E00000404FEAD13706FB07FC4FEA1C4C0CFB92
:1051F0000BF7D21B03FB0CF761EB07010CFB0EF75F
:10520000B0EB074072EB17420CFB08F734BFA2EB80
:105210000742B2EB074261EB17414FEA0C444FEAF9
:10522000910706FB07FC4FEA1C4C0CFB0BF7B0EB9D
:10523000C74072EB573203FB0CF734BFA2EBC742F7
:10524000B2EBC74261EB57310CFB0EF7B0EBC70076
:1052500072EB57720CFB08F734BFA2EBC702B2EB3C
:10526000C70261EB5771039F4FEA816141EA9211D6
:1052700004EBCC044FEAD1374FEA826206FB07FC0D
:1052800042EA90124FEA80604FEA1C4C0CFB0BF78D
:10529000D21B03FB0CF761EB07010CFB0EF7B0EB25
:1052A000074072EB17420CFB08F734BFA2EB074232
:1052B000B2EB074261EB17414FEA8C554FEA910779
:1052C00004EB9C2406FB07FC4FEA1C4C0CFB0BF781
:1052D000B0EBC74072EB573203FB0CF734BFA2EBC5
:1052E000C742B2EBC74261EB57310CFB0EF7B0EB94
:1052F000C70072EB57720CFB08F734BFA2EBC70272
:10530000B2EBC70261EB577115EB4C254FEA816197
:1053100041EA92114FEA82624FEAD13742EA901293
:1053200006FB07FC44F100044FEA80604FEA1C4C86
:105330000CFB0BF7D21B03FB0CF761EB07010CFB1B
:105340000EF7B0EB074072EB17420CFB08F734BFC7
:10535000A2EB0742B2EB074261EB174115EB1C15BC
:105360004FEA813141EA92414FEA823242EA904269
:105370004FEA80304FEA0C7644F1000448EA0343D8
:105380004EEA0B484FF0000EB2EB080C71EB03072E
:1053900024BF624639464EEB0E0E4FF0000B00184C
:1053A000524149414BEB0B0BB2EB080C71EB03077D
:1053B0007BF1000B24BF624639464EEB0E0E4FF0D8
:1053C000000B0018524149414BEB0B0BB2EB080CA0
:1053D00071EB03077BF1000B24BF624639464EEBAD
:1053E0000E0E51EA020718BF46F0010616EB0E76C4
:1053F00055F1000254F1000103D5BDE88901BDE873
:105400000088BDE88901BDE80048B619524141EB6A
:105410000101A3F10103704780807F7E7D7C7B7A50
:105420007978777676757473727171706F6E6E6D50
:105430006C6C6B6A6A6968686766666564646363F6
:1054400062616160605F5F5E5E5D5D5C5C5B5B5A7C
:105450005A595958585757565655555554545353E9
:1054600052525251515050504F4F4F4E4E4D4D4D44
:105470004C4C4C4B4B4B4A4A4A494949484848478F
:1054800047474746464645454544444444434343CD
:105490004342424242414141002B9C4630D4770076
:1054A0002BD01CB54FEA370703B44FF010004FF074
:1054B0001001BAF1000F06D0BCF1000FDCBF40F0C4
:1054C000080040F008014FF000000FBCBDE810409C
:1054D0000BF1010BBBF1010F08BF5FEA170722BFF9
:1054E00012F1010211F101014FF0004143F10003FB
:1054F00000F0004043EA00007047F9D35708D0E7B6
:1055000046EA064613F1400F4FEA16461FDD13F137
:10551000200FDFBF16430A46002120335B42BED076
:10552000C3F1200746EA064602FA07F74FEA164695
:1055300046EA0706C3F1200722FA03F201FA07F749
:1055400021FA03F14FF0000342EA0702A7E746EA17
:10555000020646EA06464FEA164646EA0106BCBF80
:1055600046EA0646360C4FF000034FF000024FF0BB
:10557000000194E72DE9804C9A46934670B491E877
:10558000380007C831EA400C48BF34EA430C03D561
:10559000FFF7E6FDFFF780FFF0BCBDE8008C2DE9CA
:1055A000804C9A46934670B491E8380007C810F0D2
:1055B000804F08BF13F0804F03D100F005F8FFF7CC
:1055C0006BFFF0BCBDE8008C20F07F4780EA030051
:1055D00023F07F4C07EB0C03A3F57C5300F0004055
:1055E000A3F1FE0392F0000F00F0B38095F0000FDE
:1055F00000F077802DE901494FEA11404FEA144647
:1056000021EA004800FB06FC24EA064708FB06F6F0
:1056100007FB08F800FB07F718EB06484CEB164CA5
:105620004FEA124B18EB07484FEA15464CEB174070
:1056300022EA0B4E0BFB06FC25EA06470EFB06F69C
:1056400007FB0EFE0BFB07F71EEB064E4CEB164C52
:105650004FF000061EEB074E4CEB174B18EB0B08F8
:1056600040F1000018EB0E0B58EB000840F1000071
:105670008F1A4FF000013CBFC943661B14BFB5EB46
:10568000040C00213CBFC943F61B4FEA17444EEA05
:105690008E0E27EA04454FEA1C4704FB07622CEAFA
:1056A000074C05FB07F70CFB05F604FB0CFC16EB9F
:1056B000074642EB174216EB0C4642EB1C421BEB33
:1056C000060658EB0202414146EA9E0601D5BDE8B6
:1056D0000189B619524141EB0101A3F10103BDE873
:1056E00001894FEA14454FEA114724EA054621EAA9
:1056F000074C05FB07F406FB07F70CFB06F105FB5F
:105700000CFC11EB074144EB17444FEA124711EB35
:105710000C4144EB1C4422EA074C05FB07F206FB54
:1057200007F70CFB06F605FB0CFC16EB074642EBF5
:10573000174216EB0C4642EB1C456A1854F1000167
:1057400048BF7047B619524141EB0101A3F1010373
:10575000704795F0000F37D04FEA11424FEA1447D7
:1057600021EA024624EA074C02FB07F106FB07F791
:105770000CFB06F402FB0CFC14EB074441EB174155
:105780004FEA154714EB0C4441EB1C4125EA074C4A
:1057900002FB07F506FB07F70CFB06F602FB0CFC09
:1057A00016EB074645EB174516EB0C4645EB1C423E
:1057B000121951F1000148BF7047B619524141EB2F
:1057C0000101A3F1010370474FEA14454FEA114765
:1057D00024EA054621EA074C05FB07F106FB07F71B
:1057E0000CFB06F24FF0000605FB0CFC12EB074227
:1057F00041EB174112EB0C4251EB1C4148BF704783
:10580000921841EB0101A3F10103704703B4019821
:105810004100009850EAC12018BF04204A0D18BF6B
:1058200040F0010040F2FF72B2EB515F08BF40F060
:105830000200012808BF052002B0704710B50029FA
:105840000AD00878002807D005487844FFF7D6FB2F
:10585000002801D0002010BD0248784410BD00008F
:10586000722500006A25000010B591EA030F48BFB9
:1058700083F0004300F1E681841A71EB030C05D23A
:10588000121943EB0C03001B61EB0C01DFF824E160
:105890004FEA1154A4EB135C1EEA430F18BF9EEAB3
:1058A000445F73D023EA0E03DCF1200E21EA045199
:1058B00043F4801332D322FA0CFE10EB0E0023FACD
:1058C0000CFE41EB0E01CCF1200E03FA0EFE10EBA4
:1058D0000E0051F10001B1F5801FCCF1200E32D243
:1058E00001EB045112FA0EF2BDE8104058BF7047A8
:1058F000401C38BF5FEA420218BF7047002814BF3F
:1059000020F0010041F100014FEA410313F5001FAF
:1059100038BF7047A1F1C04100F086B9012A43EBBE
:105920000302ACF1200CDCF11F0E32BF4FF0000E71
:1059300023FA0CF310EB030041EB0451B4EB115FBD
:10594000D0D0A1EB045101F5801149085FEA300085
:1059500001EB04510ED350F1000038BF12FA0EFED5
:1059600008D1BDE81040C9E7401C38BF5FEA4202D9
:10597000CAD1C3E7BDE810404FEA410313F5001F49
:1059800038BF7047A1F1C04100F04EB99EEA445FB4
:1059900008D011EA5E0FBDE8104004BF01F00041DD
:1059A00000207047BDE8104070B500F0EFF800BF70
:1059B00064FBBE3E0000E0FF4FEA1153A3F5806395
:1059C000D3F11E03A8BFD3F1200C08DB4FF0004237
:1059D00042EAC12252EA505232FA03F070470942B9
:1059E0000BD4102BC4BF0020704703F5787CBCF1AA
:1059F000FF3F05D04FF0FF3070474FF00000704779
:105A000070B500F0C3F800BF4992248000207047B1
:105A1000F0E7B0FA80F310FA03F10AD0C3F11D03E6
:105A200003F580634FEA41504FEA035202EBD12164
:105A300070474FF000007047DFF848C170B51CEAAE
:105A4000111E1EBF1CEA13159EEA0C0F95EA0C0FDF
:105A500000F06F8081EA030423EA4C134EEAD47EFF
:105A600021EA4C1141F4801143F48013AE44A1FBB0
:105A7000024CA0FB0365AEF17F7E361955EB0C0599
:105A8000A1FB034C4CF10003A0FB021C16EB0C061F
:105A9000654153F10003094218BF46F0010613F4B3
:105AA000007F0BD14FEA03314FEA0530340341EA5E
:105AB000155140EA16506FF003020AE04FEAC32185
:105AC0004FEAC520F40241EA555140EA56506FF0C2
:105AD000020202EB2E4201EB025585EACE710AD09A
